{
  "contractName": "dummy",
  "abi": [
    {
      "inputs": [],
      "name": "SimpleStorage",
      "outputs": [
        {
          "internalType": "uint256",
          "name": "",
          "type": "uint256"
        }
      ],
      "stateMutability": "view",
      "type": "function"
    },
    {
      "inputs": [],
      "name": "owner",
      "outputs": [
        {
          "internalType": "address",
          "name": "",
          "type": "address"
        }
      ],
      "stateMutability": "view",
      "type": "function"
    }
  ],
  "bytecode": "0x608060405234801561001057600080fd5b50610169806100206000396000f3fe608060405234801561001057600080fd5b50600436106100365760003560e01c8063027b1fb31461003b5780638da5cb5b14610059575b600080fd5b610043610077565b60405161005091906100bc565b60405180910390f35b61006161007d565b60405161006e9190610118565b60405180910390f35b60005481565b600160009054906101000a900473ffffffffffffffffffffffffffffffffffffffff1681565b6000819050919050565b6100b6816100a3565b82525050565b60006020820190506100d160008301846100ad565b92915050565b600073ffffffffffffffffffffffffffffffffffffffff82169050919050565b6000610102826100d7565b9050919050565b610112816100f7565b82525050565b600060208201905061012d6000830184610109565b9291505056fea2646970667358221220d2257b0310f68f6281c9959c725b67fb04374be078ad23f522ccc2b59734cb7e64736f6c634300080f0033",
  "immutableReferences": {},
  "source": "// SPDX-License-Identifier: MIT\r\npragma solidity >=0.4.22 <0.9.0;\r\n\r\ncontract dummy{\r\n    uint256 public SimpleStorage;\r\n    address public owner;\r\n}",
  "sourcePath": "C:\\Users\\HP\\Projects\\smartcontracts\\contracts\\dummy.sol",
  "compiler": {
    "name": "solc",
    "version": "0.8.15+commit.e14f2714.Emscripten.clang"
  },
  "schemaVersion": "3.4.9",
  "updatedAt": "2022-08-17T04:07:19.155Z",
  "devdoc": {
    "kind": "dev",
    "methods": {},
    "version": 1
  },
  "userdoc": {
    "kind": "user",
    "methods": {},
    "version": 1
  }
}